:020000040800F2
:10000000801600204D010008FB170008BB160008F1
:10001000F917000805070008ED1A000800000000A5
:10002000000000000000000000000000FF170008B2
:100030000707000800000000FD170008011800086D
:1000400067010008670100086701000867010008F0
:1000500067010008670100086701000867010008E0
:1000600067010008670100086701000867010008D0
:1000700067010008670100086701000867010008C0
:1000800067010008670100086701000867010008B0
:1000900067010008670100086701000867010008A0
:1000A0006701000867010008670100086701000890
:1000B0006701000867010008670100086701000880
:1000C0006701000867010008670100086701000870
:1000D00067010008E11A00086701000867010008CD
:1000E0006701000867010008670100086701000850
:1000F0006701000867010008670100086701000840
:10010000670100086701000867010008670100082F
:10011000670100086701000867010008670100081F
:10012000670100086701000867010008670100080F
:10013000DFF80CD000F056FA00480047ED28000820
:100140008016002080F3088870470000064880472A
:1001500006480047FEE7FEE7FEE7FEE7FEE7FEE7AC
:10016000FEE7FEE7FEE7FEE755180008310100084C
:10017000202A04DB203A21FA02F00021704721FAFC
:1001800002F3D040C2F12002914008431946704763
:1001900040EA01039B0703D009E008C9121F08C009
:1001A000042AFAD203E011F8013B00F8013B521E89
:1001B000F9D27047D2B201E000F8012B491EFBD200
:1001C00070470022F6E710B513460A460446194662
:1001D000FFF7F0FF204610BD421C10F8011B00295C
:1001E000FBD1801A704730B50B4601460020202213
:1001F000012409E021FA02F59D4205D303FA02F534
:10020000491B04FA02F52844151EA2F10102F1DC93
:1002100030BD2DE9F05F0546002092469B4688469A
:100220000646814640241BE0284641464746224672
:10023000FFF79EFF53465A46C01A914110D311460C
:100240001846224600F0E0F92D1A67EB01084F46E8
:1002500022460120002100F0D7F917EB00094E419A
:10026000201EA4F10104DFDC484631462A464346FD
:10027000BDE8F09F2DE9FE4F804681EA0300C00FE4
:100280000C46009021F0004123F00045B8EB02003D
:10029000A94105D24046214690461C460B460246DF
:1002A00023F00040104347D0270DC7F30A00C3F3E3
:1002B0000A510290401A019040286BDAC3F31300F0
:1002C00040F4801B0098924620B10023D2EB030A31
:1002D00063EB0B0B01985946C0F14002504600F009
:1002E00093F906460D4650465946019A00F09BF98F
:1002F00010EB08006141002487EA115284EAE77399
:100300001A4340D0009A62B3019A012A4FEA075279
:1003100015DC001B61EB02014FF0004202EA0752BC
:10032000CDE90042001C41F5801132462B4600F019
:100330009BF903B0BDE8F08F40462146F9E7001B6A
:1003400061EB0201001C41F5801300185B4120188D
:10035000A2F5001747EB030140EAD570B6196D41CD
:1003600011E06D084FEA360645EAC0754FEA0752BC
:10037000001B61EB0201001C41F5801149084FEAA6
:1003800030000019514132462B4603B0BDE8F04F12
:1003900000F05BB90098012240000023D0EB02027C
:1003A00063EBE073009821464FEAE074B8EB00007D
:1003B00061EB0401E9E783F000435BE781F0004172
:1003C00058E72DE9FE4F81EA030404F0004421F0D0
:1003D000004100944FF0000B23F0004350EA010469
:1003E0005ED052EA03045BD0C3F30A54C1F30A554A
:1003F0002C44A4F2F3340194A0FB0254C1F3130182
:1004000041F48011C3F3130343F4801301FB02444E
:1004100000FB034E840A970A44EA815447EA835753
:10042000A4FB076802958D0A05FB07854FEA932C0C
:1004300004FB0C542705029D4FEA065847EA16377D
:10044000B5EB08056EEB070C870E920E47EA811795
:1004500042EA8312A7FB0201B6EB0B0164EB000436
:100460002B0D43EA0C335E1844EB1C50DA46514620
:10047000E7FB0201C5F313044FEA0B3343EA1453BD
:100480004FEA0432019C43EA0603A4F10C040294EF
:10049000009CCDE900B400F0E7F803B0BDE8F08FB0
:1004A00000200146F9E72DE9F04D81EA030404F04C
:1004B000004B21F0004514464FF0000A23F00041A4
:1004C00050EA050220D054EA01021DD0C5F30A57B4
:1004D0000246C5F31303C1F31300C1F30A5640F4F7
:1004E000801543F48013A7EB0608101BD64608F2CC
:1004F000FD3873EB050002D308F1010801E0921802
:100500005B41B8F1000F03DA00200146BDE8F08D31
:1005100000204FF48011064684460EE0171B73EB53
:10052000050705D3121B63EB050306434CEA010CD8
:1005300049084FEA300092185B4150EA0107EDD1BB
:1005400052EA030012D082EA040083EA050108435C
:1005500005D0101BAB4106D20122002306E0002289
:100560004FF0004302E06FF0010253101AEB060057
:100570004CEB085110EB0A0041EB0B01BDE8F04DCC
:1005800000F063B8C1F30A52C1F3130140F2FF3324
:1005900041F480119A4202DA00200146704740F28D
:1005A00033439A42A2F2334202DC5242FFF7E0BDEB
:1005B00000F02AB830B5041E71F1000404DB4FF0DE
:1005C0000044404264EB0101141E73F1000405DB9A
:1005D0001C464FF00043524263EB0403994208BFAC
:1005E000904230BD064C074D06E0E06840F0010344
:1005F00094E8070098471034AC42F6D3FFF79CFD0F
:10060000E02A0008002B0008202A04DB203A00FA28
:1006100002F1002070479140C2F1200320FA03F359
:10062000194390407047202A06DBCB17203A41FA45
:1006300002F043EAE07306E041FA02F3D040C2F16F
:100640002002914008431946704710B5141E73F1FB
:10065000000408DA401C41F1000192185B411A4382
:1006600001D120F0010010BD2DE9F04D92469B46CE
:1006700011B1B1FA81F202E0B0FA80F22032904674
:10068000FFF7C2FF04460F4640EA0A0041EA0B01A9
:1006900053465A46084313D0114653EA010019D075
:1006A000C8F140025046FFF763FD05460E4650462E
:1006B00059464246FFF7A8FF084305D0012004E051
:1006C00020463946BDE8F08D0020054346EAE07635
:1006D0002C4337430A986305E40AA0EB0800002284
:1006E000FD0A44EA47540A3002D500200146E9E7F2
:1006F000010510196941DDE9084500196941BDE8A6
:10070000F04DA2E7FEE7704770470000064A00215F
:10071000D16106490A6942F002020A61486108692A
:1007200040F0400008617047601200200020024045
:10073000044B0022DA61044A136943F00103136198
:1007400001807047601200200020024014480022FF
:10075000C168CB06134904D5CA6942F00202CA61D6
:100760001022C3685B0705D5CB6943F00103CB6159
:1007700042F00402C369DB0707D0CB6943F00403EE
:10078000CB61C16921F00101C161A2F5807101391C
:1007900001D0C2607047C16921F00101C161704799
:1007A000002002406012002070B5054600F0BAFA41
:1007B0000646114C09E0681C07D025B100F0B2FADA
:1007C000801BA84201D9032070BDE068C007F2D1A8
:1007D000E068800601D52020E060E068C00605D40E
:1007E000E069C00702D1E068400703D5FFF7AEFF1C
:1007F000012070BD002070BD002002402DE9F05F97
:1008000090F821100024022903D0042181630124DF
:1008100085E001680A6822F00E020A6001680A6831
:1008200022F001020A603F4E3E4FB215DFF8F4C0DD
:10083000DFF8F090DFF8ECA0DFF8E8B0DFF8E4E0F4
:100840000168783F13011502ACF1640CA9F150095D
:10085000AAF13C0AABF1280BAEF1140E4FF480184C
:10086000B14227D9B9420ED0614512D049451DD0B9
:10087000514518D0594518D0714501D1424615E06F
:10088000294EB14201D1012210E0274E1436B14267
:1008900001D110220AE0244E2836B14206D0224A65
:1008A0003C32914201D11A4600E02A461E49091FF6
:1008B0000A602BE0B94213D0614517D0494522D0D8
:1008C00051451DD059451DD0714501D142461AE010
:1008D000B14202D14FF0807215E0134EB14201D106
:1008E000012210E0104E1436B14201D110220AE06C
:1008F0000D4E2836B14206D00B4A3C32914201D10E
:100900001A4600E02A46074980394A60012180F8EA
:100910002110002180F82010416B01B1884720464A
:10092000BDE8F09F800002400804024070B5044614
:1009300000F0F8F90546601C02D004480078044431
:1009400000F0F0F9401BA042FAD370BD0C0000206B
:100950000348016941F080010161002070470000F7
:10096000002002402DE9F05F07461C48884600241D
:10097000017E15461E46012909D0012181460176D6
:100980004CF2503A5046FFF70FFF18B122E0022018
:10099000BDE8F09F012F02D0022F00D00427D346DC
:1009A000DFF83CA0220128463146FFF7E1FB81B287
:1009B00008EB4400FFF7BCFE5846FFF7F5FEDAF8F7
:1009C000102022F00102CAF8102018B9641CE4B209
:1009D000BC42E7D3002289F81820D9E76012002032
:1009E00000200240064900200A69120607D5054A80
:1009F0004A60054A4A600969090600D50120704726
:100A00000020024023016745AB89EFCD2DE9F0437B
:100A100000233E4F0F2574E001229A400A406ED019
:100A200023F00304E619D6F808809C074FEA147CEB
:100A300005FA0CF909EA0804DFF8D480404502D130
:100A40004FF0000824E0DFF8CC80404502D14FF0A1
:100A500001081DE0DFF8C080404502D14FF00208D8
:100A600016E0DFF8B880404502D14FF003080FE0F0
:100A7000DFF8AC80404502D14FF0040808E0DFF811
:100A8000A480404502D14FF0050801E04FF0060870
:100A900008FA0CF8A04515D1D6F808C02CEA090CC4
:100AA000C6F808C0204E346894433460341D26686C
:100AB00096432660241D266896432660241D2668DA
:100AC00096432660FF2A01D8064601E000F104069D
:100AD0004FEA830401D9A4F12004D6F800C005FA36
:100AE00004F82CEA080C4FF0040808FA04F84CEA61
:100AF000080CC6F800C0C46824EA0204C46003F10C
:100B0000010331FA03F287D1BDE8F0830000014010
:100B100000080140000C0140001001400014014099
:100B200000180140001C0140000401402DE9F84F6D
:100B3000DFF8C891002409F1040A0AF1040B2346E6
:100B40000F270BF1040ED1E00125A54006EA0502AE
:100B5000AA4276D1DFF8A8C14E68A6EB0C0866451C
:100B60002BD00DDC032E34D005DC36B3012E19D08A
:100B7000022E2FD11BE0112E16D0122E2AD119E0F1
:100B8000B8F5881F19D006DCB8F5803F15D0B8F548
:100B9000801F1FD111E0B8F5001F0ED0B8F5041F5B
:100BA00018D10AE0CB6815E0CB681B1D12E0CB68BA
:100BB00008330FE0CB680C330CE08B682BB1012BB2
:100BC0004FF0080303D0456104E0042302E005610F
:100BD00000E00023FF2A01D8064601E000F10406E8
:100BE0004FEA840501D9A5F12005D6F8008007FA5F
:100BF00005FC28EA0C0803FA05F548EA0508C6F8DA
:100C000000804D68ED0070D53E4DAE6946F001069E
:100C1000AE61AD6924F0030605F0010500953A4D7B
:100C200006EB050CDCF80850A607360F07FA06F8A5
:100C300025EA0805DFF8D480404503D14FF00008CD
:100C400025E052E0DFF8C880404502D14FF00108AE
:100C50001DE0DFF8C080404502D14FF0020816E0E9
:100C6000DFF8B480404502D14FF003080FE0DFF811
:100C7000AC80404502D14FF0040808E0DFF8A080C6
:100C8000404502D14FF0050801E04FF0060808FA90
:100C900006F848EA0508CCF808804D68D9F80060E5
:100CA000ED034D4601D5164300E096432E604D6896
:100CB000DAF80060AD03554601D5164300E09643CF
:100CC0002E604D68DBF80060ED025D4601D51643ED
:100CD00000E096432E604D68DEF80060AD02754678
:100CE00001D5164300E096432E60641C0A68164640
:100CF000E2407FF429AFBDE8F88F00000004014016
:100D000000001110001002400000014000080140E6
:100D1000000C014000100140001401400018014087
:100D2000001C014001488068704700000C00002052
:100D30000248816802781144816070470C000020ED
:100D4000074810B5016841F010010160032000F070
:100D500083F8002000F006F800F024F8002010BD11
:100D60000020024070B50D4D04464FF47A7128788A
:100D7000B1FBF0F00A490968B1FBF0F000F0FAFAB3
:100D800048B9102C07D200222146501E00F044F82A
:100D900000206C6070BD012070BD00000C000020C0
:100DA000180000200B4808B5816941F001018161FC
:100DB000816901F001010091C16941F08051C16177
:100DC000C06900F0805000900348416821F0E06164
:100DD000416008BD001002400000014000280DDB0A
:100DE00000F01F02012191404009800000F1E02045
:100DF000C0F88011BFF34F8FBFF36F8F704700288B
:100E000009DB00F01F02012191404009800000F140
:100E1000E020C0F800117047F0B40E4B1B680C4680
:100E2000C3F30223C3F10705042D00D90425191DBE
:100E3000072901D2002300E0DB1E012606FA05F196
:100E4000491E214099409E40761E16403143F0BC19
:100E500000F074BE0CED00E0064900F007020868DF
:100E60004FF6FF03184040EA0220034A104308608F
:100E7000704700000CED00E00000FA052DE9F04796
:100E80000F46050061D0434E306800F00700B842BD
:100E900009D2306820F0070038433060306800F035
:100EA0000700B84251D128683B4C810712D5400752
:100EB00003D5606840F4E06060602878000703D5DF
:100EC000606840F4605060606068A96820F0F000DD
:100ED000084360602878C00728D06868012810D0CF
:100EE0002168022810D0890700292EDA616821F0D4
:100EF000030101436160FFF715FF804641F2883925
:100F00000DE021688903EFE78901EDE7FFF70AFFAC
:100F1000A0EB0801494502D90320BDE8F0876068CD
:100F2000696800F00C00B0EB810FEFD1306800F081
:100F30000700B8420BD9306820F007003843306012
:100F4000306800F00700B84201D00120E5E72878BA
:100F5000400705D56068E96820F4E06008436060F8
:100F60002878000706D56068296920F4605040EAB7
:100F7000C100606000F038F86168084AC1F30311ED
:100F8000515CC8400649086006480068FFF7EAFE61
:100F90000020C2E70020024000100240C62A0008DC
:100FA0001800002010000020044805490068496826
:100FB000044AC1F30221515CC84070471800002068
:100FC00000100240D62A0008044805490068496814
:100FD000044AC1F3C221515CC84070471800002088
:100FE00000100240D62A000812A185B00FC98DE872
:100FF0000F0014A0144A006804905168134801F0CF
:101000000C03042B10D0082B0ED1C1F38343C9036A
:101010001DF803000AD5516804AAC1F34041515C90
:101020000A4A5043B0FBF1F005B070470849484305
:10103000FAE7000002030405060708090A0B0C0D75
:101040000E0F1010010200000010024000127A0082
:1010500000093D002DE9F84F040070D02078C04D04
:10106000C00749D06868C0F38100012807D06868CC
:10107000C0F38100022809D16868C00306D528683A
:10108000800339D560680028E7D035E06068B0F5A6
:10109000803F0BD010B1B0F5A02F11D0286820F4FC
:1010A00080302860286820F4802002E0286840F41E
:1010B00080302860606890B1FFF734FE06460AE091
:1010C000286840F480202860F0E700BFFFF72AFE80
:1010D000801B642873D828688003F7D50CE0FFF7DD
:1010E00021FE064605E000BFFFF71CFE801B6428BA
:1010F000F0D828688003F7D420789A4E80074FF004
:1011000001094FF0000839D5686810F00C0F07D0BE
:101110006868C0F38100022809D16868C00306D45A
:101120002868800714D52069012808D110E02069BB
:10113000B0B1C6F80090FFF7F5FD074605E00AE1FB
:10114000FFF7F0FDC01B0228C4D828688007F7D538
:101150002868616920F0F80040EAC10028600DE0CD
:10116000C6F80080FFF7DEFD074604E0FFF7DAFD72
:10117000C01B022823D828688007F7D420780007EE
:101180002CD57948A169D9B1C0F80090FFF7CAFD04
:10119000074604E0FFF7C6FDC01B02280FD8686AA7
:1011A0008007F7D571484FF4FA510068B0FBF1F0B1
:1011B000009000BF0098411E0091FAD20EE080E03E
:1011C000C0F80080FFF7AEFD074604E0FFF7AAFD78
:1011D000C01B022875D8686A8007F7D420784007BA
:1011E00060D5E8690027C00008D4E86940F0805065
:1011F000E861E869012700F0805000905C480168D0
:10120000C90513D40168834641F480710160FFF77A
:1012100089FD824606E000BFFFF784FDA0EB0A00CF
:1012200064284ED8DBF80000C005F5D5E068012839
:101230000AD008B1052813D0286A20F001002862DE
:10124000286A20F0040002E0286A40F001002862C9
:10125000E06841F2883B98B1FFF764FD82460BE0FD
:10126000286A40F004002862EEE700BFFFF75AFD4D
:10127000A0EB0A0159455AD8286A8007F6D50CE038
:10128000FFF750FD824605E0FFF74CFDA0EB0A0199
:1012900059454CD8286A8007F6D41FB1E86920F078
:1012A0008050E861E06988B36968C1F3810102296F
:1012B00044D00228C6F8608004D0FFF733FD04460E
:1012C00038E034E0FFF72EFD074604E0FFF72AFD83
:1012D000C01B02282BD828688001F7D4206AB0F5FB
:1012E000803F05D16868A16820F400300843686039
:1012F000D4E908010843696821F47411084368605F
:10130000C6F86090FFF70EFD044606E025E000BF3A
:10131000FFF708FD001B022809D828688001F7D5CF
:101320001BE000BFFFF7FEFC001B022802D90320D0
:10133000BDE8F88F28688001F4D40EE00128F7D0CA
:101340006868226A00F48031914204D1616A00F435
:101350007010884201D00120EAE70020E8E7000091
:101360000010024000004242800442421800002067
:101370000070004010B5401EB0F1807F01D3012005
:1013800010BD4FF0E02460610F21601700F0D6FB24
:101390000020A06107202061002010BD10B50400CE
:1013A00013D0242084F839002068C16821F400514A
:1013B000C160204600F0C6F80020E06384F83900E0
:1013C00084F83A0084F8380010BD012010BD704741
:1013D00070B5026804461068D168536910F00F0FA9
:1013E00050D003F0010501F4907635435DD0C2077B
:1013F00005D0CA0503D5E26B42F00102E263420761
:1014000005D5DA0703D0E26B42F00202E2638207FD
:1014100005D5DA0703D0E26B42F00402E26302076B
:1014200005D5DA0703D0E26B42F00802E263E26B13
:10143000002A33D0800604D5880602D5204600F065
:1014400043FA20684069E16BC0F38010090700D4BB
:1014500028B3204600F02AFA2068416949061AD5C7
:10146000416921F040014161606BA0B11B494163BA
:10147000606BFFF7C3F9002810D0606B416BBDE8CB
:1014800070400847830610D58B060ED52046BDE870
:10149000704000F019BA2046FFF799FF70BD204652
:1014A000FFF795FF0020E06370BD030606D50B062D
:1014B00004D52046BDE8704000F0AEBA4006F3D532
:1014C0004806F1D5D168204621F04001D1602021A5
:1014D00084F8391000F0F0F870BD00009D18000885
:1014E00070B5040004D094F83900002510B106E06E
:1014F000012070BD84F83850204600F03FF82420C9
:1015000084F839002068C16821F40051C160204688
:1015100000F026FA2068016921F4904101612068F9
:10152000416921F02A0141612068C16841F40051FC
:10153000C160E563202084F8390084F83A00002077
:1015400070BD000010B50068094988420ED10948F5
:10155000816921F4804181614FF4C0610648FFF741
:1015600055FABDE810402520FFF738BC10BD00003B
:1015700000380140001002400008014030B585B03D
:10158000002400940194029403940068184988424E
:101590002CD11848816941F480418161816901F44D
:1015A00080410491816941F0040181618069124D9B
:1015B00000F0040004904FF40070009002200190AD
:1015C0000320039069462846FFF7B0FA2815CDE9B5
:1015D0000004694628460294FFF7A8FA0022114643
:1015E0002520FFF719FC2520FFF709FC05B030BDC9
:1015F00000380140001002400008014070472DE90A
:10160000F843044690F839001F4616460D46202838
:1016100050D1A5B19EB194F8380001284AD00120DC
:1016200084F838004FF00008C4F83C80212084F88A
:101630003900FFF777FBA6848146E68426E0012087
:10164000BDE8F883E08C401EE084A0684B46B0F50E
:10165000805F4FF000024FF080012046009703D0DA
:1016600000F00BFAE8B90DE000F007FAC8B92888D5
:101670002168C0F308004860206908B16D1C05E0CE
:10168000AD1C03E0216815F8010B4860E08C0028D0
:10169000D8D14B46002240212046009700F0EDF9BA
:1016A00008B10320CCE7202084F8390084F8388082
:1016B0000020C5E70220C3E77047FEE730B585B0DC
:1016C0000020029003903648816941F04001816119
:1016D000816901F040010491816941F0100181614B
:1016E000816901F010010491816941F080018161FB
:1016F000816901F080010491816941F004018161F7
:10170000816901F004010491816941F0080181615E
:10171000816901F008010491816941F4807181615E
:10172000816901F480710491816941F02001816136
:1017300080694FF6FF75032400F02000CDE90054C6
:10174000049069461748FFF7F1F9A810CDE90004A5
:1017500069461548FFF7EAF9CDE900546946134890
:10176000FFF7E4F941F6FF10CDE90004694610489F
:10177000FFF7DCF94FF6E770CDE9000469460D4844
:10178000FFF7D4F9CDE9005469460B48FFF7CEF9CD
:10179000CDE9005469460948FFF7C8F905B030BDE6
:1017A000001002400018014000100140001C0140E0
:1017B00000080140000C01400020014000140140DD
:1017C0000C4810B50A4901604FF4E1314160002135
:1017D00081600C22C160C0E904128161C161FFF720
:1017E0007FFE002803D0BDE81040FEF78DBF10BD7E
:1017F0000038014020120020FEE770477047704714
:10180000FFF796BA30B58FB028216846FEF7D9FCAD
:1018100014210AA8FEF7D5FC01210804CDE9001027
:101820000024029402250491CDE907504FF4E01002
:1018300009906846FFF70EFC0F20CDE90A05680203
:10184000CDE90C4002210AA80E94FFF717FB0FB058
:1018500030BD00000D48016841F0010101604168A0
:101860000B4A1140416001680A4A11400160016859
:1018700021F480210160416821F4FE0141604FF4B0
:101880001F0181600449C0030860704700100240D6
:101890000000FFF8FFFFF6FE08ED00E010B5406A1B
:1018A0000021C185C184FFF792FD10BD0168CA689F
:1018B00022F49072CA6001684A6922F001024A610A
:1018C000202180F83A10704710B590F83A1022297C
:1018D00001D0022010BD8168B1F5805F11D001698F
:1018E000002901681FD0496801F07F03816A4A1C02
:1018F00082620B70C18D491E0904090CC18518D084
:101900002BE00269816A002A0268526805D0D2B2CF
:101910000A80816A491C8162ECE7C2F308020A80EE
:10192000816A891CF7E74A68816A4B1C83620A70E6
:10193000E0E70168CA6822F02002CA600168CA684C
:1019400022F48072CA6001684A6922F001024A6189
:10195000202180F83A10FFF751FE002010BD000052
:101960002DE9F041044600680169E26821F4405124
:10197000114301612169A068084361690843216836
:10198000CA6841F20C639A430243CA602068416905
:10199000A26921F44071114341611E492068642508
:1019A0003226884202D1FFF70FFB01E0FFF7FCFA75
:1019B00000EBC00101EB001160686FF018078000B8
:1019C000B1FBF0F2B2FBF5F2B1FBF0F37A4303EBBB
:1019D0008202B1FBF0F306EB0212B2FBF5F2B3FBAD
:1019E000F5F302F0F00202EB0312B1FBF0F3B1FBEE
:1019F000F0F0B0FBF5F0784303EB800006EB00104D
:101A0000B0FBF5F0216800F00F0010448860BDE8DD
:101A1000F08100000038014090F83910212901D0F0
:101A2000022070478168B1F5805F016A0BD04A1CC3
:101A30000262026809785160C18C491E0904090CD0
:101A4000C1840ED017E009880268C1F30801516013
:101A500001690029016A02D0491C0162ECE7891C76
:101A6000FBE70168CA6822F08002CA600068C168AA
:101A700041F04001C160002070472DE9F0419846D7
:101A800017460E460446069D1DE0681C1BD02DB16E
:101A9000FFF748F9A0EB0800A84214D92068C168F4
:101AA00021F4D071C1602068416921F001014161D8
:101AB000202084F8390084F83A00002084F83800A7
:101AC0000320BDE8F0812068006836EA000004D0F9
:101AD0000020B842D9D00020F3E70120F9E7000048
:101AE0000148FFF775BC000020120020FEE700004F
:101AF0000FB4054B10B503A9044A029800F000F991
:101B000010BC5DF814FB00004D2800081C000020EC
:101B10007CB5044600201D46164600290BD0491E00
:101B2000CDE90041044B6A462946304600F0E8F80A
:101B3000009A002111707CBD2F2400080907090EAE
:101B4000002804DB00F1E02080F80014704700F06A
:101B50000F0000F1E02080F8141D704702E008C873
:101B6000121F08C1002AFAD170477047002001E017
:101B700001C1121F002AFBD1704700002DE9FF5F51
:101B800082B00021DDE90430020DDDF840B00343EE
:101B900018D044F61050A2F2FF32424315141198A7
:101BA00001281FD0A5EB0B00401C5FEA000A4FF094
:101BB00000064E4FDFF83891B046504615D5CAF1B1
:101BC000000413E0119801244AA3012801D16FEA0F
:101BD0000B010298119AC0E90031C0E9024206B037
:101BE000BDE8F09FCBF10000DFE704460021404A4A
:101BF000491842EB0450CDE9001012E0E00707D08D
:101C000032463B4640464946FEF7DBFB8046894666
:101C100032463B4610461946FEF7D3FB06460F46B2
:101C20006410002CEAD1DDE90401DDE90023BAF1FA
:101C3000000F06DAFEF7C5FB42464B46FEF7C1FB36
:101C400005E0FEF730FC42464B46FEF72CFC04460E
:101C50000E460022284BFEF7ADFC03D84FF0FF30B4
:101C6000014607E00022254B20463146FEF702FBE5
:101C7000FEF788FC102409E0002C0ADB0A2200236E
:101C8000FEF7C7FA039B30321A55641E50EA010270
:101C9000F2D1641C039AC4F111031444119A012A6D
:101CA00003D0012208430DD10AE0084304D00020EC
:101CB0004FF0110B119072E7A3EB0B056D1E0DE0B9
:101CC0005B4504DD4FF0000205F1010504E003DA95
:101CD0004FF00002A5F10105002AECD002981199FD
:101CE000C0E90231C0E9004579E700000000144076
:101CF0000000F03F300000000000F0430000E03F33
:101D00002DE9FF4F95B09B468946064600250FE218
:101D1000252877D100242746F84A0121059400E0C0
:101D2000044316F8013F203B01FA03F01042F7D1BB
:101D300030782A2811D06FF02F033078A0F13002CC
:101D4000092A16D8059A44F0020402EB820203EB3A
:101D500042021044761C0590EFE759F8042B0592D7
:101D6000002A03DA504244F40054059044F002047F
:101D7000761C30782E2816D116F8010F44F0040492
:101D80002A280DD06FF02F023078A0F13003092BF4
:101D900009D807EB870302EB4303C718761CF3E768
:101DA00059F8047B761C30786C280FD006DC4C2860
:101DB00017D068280DD06A2814D104E0742810D0F8
:101DC0007A280FD10DE044F400140AE044F48014A2
:101DD00001E044F440147278824202D104F5801488
:101DE000761C761C307866280BD013DC582877D008
:101DF00009DC002875D04528F6D04628F4D04728BD
:101E00001AD19DE118E0632835D0642879D065287F
:101E100012D195E1702873D008DC6728F1D06928C9
:101E20006FD06E280DD06F2806D1B5E073282CD066
:101E3000752875D0782874D05A46179990476D1C2C
:101E400075E1C4F30250022809D003280DD0D9F857
:101E5000001004280DD00D6009F1040967E1D9F8DC
:101E60000010EA17C1E90052F6E7D9F800100D801A
:101E7000F2E70D70F0E719F8041B8DF80010002050
:101E80008DF80100EA46012003E059F804AB4FF059
:101E9000FF3061074FF0000102D40DE008F10101AD
:101EA0008846B9420FDA8045F8DB1AF80810002995
:101EB000F4D108E008F1010188468142FADB1AF802
:101EC00008100029F6D105985B46A0EB08072146CB
:101ED0003846179A00F094FA284400EB080507E00A
:101EE0004DE029E10DE01AF8010B5A461799904789
:101EF000B8F10108F7D25B4621463846179A13E13C
:101F000042E00A220092C4F302524FF0000A022A71
:101F100008D059F804CB032A4FEAEC710AD00DE03F
:101F200029E02AE009F1070121F00702F2E802C1E5
:101F3000914609E00FFA8CFC4FEAEC71042A03D1B8
:101F40004FFA8CFC4FEAEC71002907DA0A460021AF
:101F5000DCF1000C61EB02012D2202E0220504D528
:101F60002B228DF80420012203E0E20701D0202279
:101F7000F7E7904659E00A2102E010220DE0102117
:101F80004FF0000A00910BE010224FF0000A44F0DD
:101F900004040827009203E008224FF0000A009290
:101FA000C4F30252022A05D059F804CB0021032AB7
:101FB00008D009E009F1070121F00702F2E802C1A7
:101FC000914605E01FFA8CFC042A01D10CF0FF0CAD
:101FD0004FF00008220728D5702806D0009B83F018
:101FE000100353EA0A0305D00EE040228DF80420C6
:101FF000012208E05CEA010206D030228DF80420BC
:102000008DF8050002229046009B83F0080353EAF6
:102010000A030AD15CEA010201D1620705D5302228
:102020008DF804204FF001087F1E582804D034A0FA
:1020300003900EA802900DE036A0F9E753466046E3
:10204000009AFEF7E6F884460398825C0298401EE8
:10205000029002705CEA0100F0D1029806A9081A09
:1020600000F1200A600702D524F4803400E0012743
:10207000574502DDA7EB0A0000E0002000EB0A0153
:10208000009005984144401A0590E00306D45B4651
:102090002146179A059800F0B3F90544002706E099
:1020A00001A85A46C05D179990476D1C7F1C474593
:1020B000F6DBE0030CD55B462146179A059800F045
:1020C0009FF9054404E030205A46179990476D1C4B
:1020D0000099481E00900029F5DC08E0029802995A
:1020E0005A460078491C0291179990476D1CBAF125
:1020F0000001AAF1010AF1DC65E1000009280100F4
:10210000303132333435363738396162636465666D
:10211000000000003031323334353637383941422F
:10212000434445460000000000F058F90544761C81
:10213000307800287FF4ECAD19B02846BDE8F08F68
:10214000620700D4062709F1070222F0070CFCE819
:102150000223E14603F000485FEA080C02D00FF2C8
:10216000702C0DE05FEA045C02D50FF2682C07E0EA
:102170005FEAC47C02D00FF2602C01E0AFF2700C79
:102180004FF0FF3823F00043CDF850C065280CD045
:1021900006DC452809D046281DD047283DD13DE022
:1021A000662818D067287ED138E00021112F01DB86
:1021B000112000E0781CCDE9000106A90EA8FFF768
:1021C000DDFCDDE90F010E9A03910021009207F179
:1021D000010A04914DE04FF000400097CDE9011055
:1021E00006A90EA8FFF7CAFCDDE90F0203920E9BB9
:1021F00011990022DDF80CA00093049211B9791C0A
:1022000000EB010AB7EB0A0004D4C0F1FF3007F17C
:10221000010A0490AAEB0700019044E0012F00DAC4
:1022200001270021112F01DD112000E03846CDE902
:10223000000106A90EA8FFF7A1FCDDE90F010E9A27
:102240000391002104910092BA4621070CD403990E
:10225000514500DA8A46BAF1010F05DD009AAAF16C
:102260000101515C302908D0B84202DA10F1040FA4
:1022700006DA0121CDE9011015E0AAF10101E9E733
:10228000002805DC049901440491AAEB000102E056
:10229000411C514500DD8A460499401A401C0190BA
:1022A0004FF000400290200704D40198504501DB14
:1022B000CDF8048000208DF84F0002980DF14F07F3
:1022C000B0F1004F25D02B200E9002984FF002085D
:1022D00000280CDA404202902D200E9007E00A21DF
:1022E0000298FDF780FF3031029007F8011DB8F128
:1022F0000001A8F10108F2DC02980028EFD1791E54
:102300000E980870307800F0200040F0450007F883
:10231000020D12A8C01B00F107081498007800B144
:10232000012000EB0A01019801EBE071059841449E
:10233000401A401E0590E00306D45B462146179ADA
:10234000059800F05DF805441498007818B15A46D5
:10235000179990476D1CE00324D55B462146179AD8
:10236000059800F04DF805441CE00498002807DBB0
:10237000DDE90301884203DD0098405C179901E024
:10238000179930205A469047049805F10105401CE2
:1023900004900198401E019004D12E205A461799AE
:1023A00090476D1CBAF10001AAF1010ADDDC05E0DD
:1023B00017F8010B5A46179990476D1CB8F10001A8
:1023C000A8F10108F4DC5B462146179A0598ABE6B4
:1023D0002D0000002B000000200000002DE9F0413E
:1023E000044600251E461746880404D405E03946F5
:1023F0002020B0476D1C641EF9D52846BDE8F08149
:102400002DE9F041044600251E469046C80301D53B
:10241000302700E02027880404D505E041463846EF
:10242000B0476D1C641EF9D52846BDE8F0814A68A6
:10243000002A06D00A68531C0B6010704868401EC2
:10244000486070470FB4F8B514460D4606460AAB0F
:102450004FF400710748099AFFF75AFB05480090AE
:1024600023462A46314604A0FFF742FBF8BC5DF83C
:1024700014FB0000200000205B202573205D5B2002
:10248000257328293A253034645D2025730A00001D
:10249000F0B58DB006462C2101A8FDF792FE4B4FFA
:1024A000384600F04AF9A0F57F4101ADFF392AD145
:1024B00001208DF804000020ADF806008DF808001A
:1024C00043A00068CDF80900FEF78CFA3846FEF705
:1024D0001DF94CF25030FEF767F93F48016921F0D1
:1024E000020101610024281902684368E1190320F0
:1024F000FEF738FA08B1FEF72BFA0834E4B22C2CB8
:10250000F1D3FEF725FA002130480A580844406804
:102510006B180831C3E90020C9B22C29F4D39DF807
:10252000040000902DA340F21F12364936A0FFF799
:1025300089FFBDF80600009035A34FF49072314931
:1025400031A0FFF77FFF9DF8080000903AA340F20A
:1025500021122C492CA0FFF775FF0DF10900009006
:102560003FA34FF49172274927A0FFF76BFF0DF1AE
:102570001A00009043A340F22312224922A0FFF741
:1025800061FFBDF82A00009047A34FF492721D49E5
:102590001DA0FFF757FFBDF82C0000904CA340F2A0
:1025A0002512184918A0FFF74DFFBDF82E00009026
:1025B00051A34FF49372134913A0FFF743FF2C224A
:1025C00001A93046FDF7E4FD0DB0F0BD0040020862
:1025D00056312E300000000000200240736F7461FD
:1025E0005F747970652E736F74615F737461747555
:1025F000733A2020202020203C2025303258203ED5
:1026000000000000AD2A0008444542554700000084
:10261000736F74615F747970652E646F776E6C6F21
:1026200061645F7061636B3A202020203C2025307C
:102630003458203E00000000736F74615F7479703D
:10264000652E6661696C5F74696D65733A20202040
:10265000202020203C2025303258203E0000000061
:10266000736F74615F747970652E6F6C645F7665EB
:102670007273696F6E3A2020202020203C20257341
:10268000203E0000736F74615F747970652E6E6513
:10269000775F76657273696F6E3A20202020202064
:1026A0003C202573203E0000736F74615F74797065
:1026B000652E73696E676C655F7061636B616765DA
:1026C0003A2020203C2025303458203E00000000D5
:1026D000736F74615F747970652E746F74616C5F71
:1026E0007061636B6167653A202020203C202530B3
:1026F0003458203E00000000736F74615F7479707D
:10270000652E7665725F7061636B5F636F64653AB7
:10271000202020203C2025303458203E000000009E
:1027200010B5002306E000BF30F8024B21F813403B
:102730005B1C9BB29342F7D310BD0088704700002A
:102740002DE9F05FA0F1006415468A468346B4F592
:10275000002F5FD2FEF746F9E70AC4F34906C6F533
:102760008064A54200D82C46DFF8AC904FF00060A2
:1027700000EBC72080464FF480622749FFF7D0FF67
:1027800000204FF6FF7106E0331839F813208A4213
:1027900003D1401C80B2A042F6D3A0422ED24046C4
:1027A000FDF7B4FF4CF25030FDF7FEFF1B48016906
:1027B00021F0020101610020494606E03AF81020AC
:1027C0008319401C21F8132080B2A042F6D312498D
:1027D00040464FF4806200BF00F022F8A54215D0B9
:1027E000281B0AEB440A0BEB440B002685B24FF47E
:1027F00080647F1CA542B9D82C46B7E74CF2503014
:10280000FDF7D2FF224651465846E5E7BDE8F05FA6
:10281000FEF79EB8BDE8F09F200200200020024095
:102820002DE9F04116460F46054600240AE000BF98
:1028300037F81420002329460120FEF793F8641C82
:10284000A4B2AD1CB442F3D3BDE8F08113B54FF68A
:10285000FF73012269460248FEF7D1FE00981CBDB5
:102860002012002010B50168074A1140B1F1005F45
:1028700009D14168054C21600068FDF763FC2068C0
:10288000BDE81040004710BD0000FE2F00000020F2
:1028900038B5044640680821B1EB106F07D10848ED
:1028A000FEF77CFD2046BDE83840FFF7DBBF05A3FF
:1028B0004FF49A720A490BA00094FFF7C3FD38BD8C
:1028C0002012002020457865637574696F6E203C86
:1028D00025583E206661696C757265210000000014
:1028E000BD2A000844454255470000008CB0FEF761
:1028F00027FAFEF787FFFEF7E1FEFEF761FF4CA324
:102900008D22514951A0FFF79DFD6846FFF7C0FD9C
:102910009DF800004F4E012810D0032812D0022845
:102920007DD04DA3C622484948A0FFF78BFD00BFCC
:102930004FF47A742046FDF7F9FFFBE73046FFF7C6
:10294000A7FFF5E74AA397223F4940A0FFF77AFD8A
:102950004D484E4C4E4D80464714206063683A46C1
:102960004C4903EB0800FFF7DBFE60683A46494933
:102970003044FFF7E5FE206800F5006020606168E4
:10298000A84201F500616160E8D9012700208DF8B7
:102990000070ADF802008DF804006E461021701D25
:1029A000FDF70FFC0DF116000446FDF715FC02467D
:1029B0002146701DFDF7ECFB16212046FDF701FCBA
:1029C000FEF710F82846FDF7A1FE4CF25030FDF757
:1029D000EBFE3148016921F0020101610024301948
:1029E0000268436861190320FDF7BCFF08B1FDF7D9
:1029F000AFFF0834E4B22C2CF1D3FDF7A9FF87F325
:102A00001388BFF34F8F25480168254A01F4E06120
:102A100011430160BFF34F8F00BFFDE7FFE79DF853
:102A20000400401C8DF804001E48FEF78BFD85E76E
:102A300020626F6F744C6F616465722072756E698D
:102A40006E672E2E2E000000A82A0008444542552D
:102A5000470000000040000820426F6F744C6F6117
:102A6000646572206661696C757265210000000002
:102A70004461746120617265612068616E646C6993
:102A80006E672E2E2E00000000400108040000207A
:102A900000400208200A0020002002400CED00E067
:102AA0000400FA05201200206D61696E00666C61F9
:102AB00073685F646174615F696E6974006A756DE3
:102AC000705F6170700000000000000000000102F3
:102AD00003040607080900000000010203040000C7
:102AE000002B000800000020200000005C1B0008F4
:102AF000202B000820000020601600006C1B00083E
:102B000000000000000000000000000001000000C4
:102B100010000000000000000024F400000000008D
:0400000508000131BD
:00000001FF
